{
  "contractName": "HelloWorld",
  "abi": [
    {
      "inputs": [],
      "payable": false,
      "stateMutability": "nonpayable",
      "type": "constructor"
    },
    {
      "constant": true,
      "inputs": [],
      "name": "getMessage",
      "outputs": [
        {
          "name": "",
          "type": "string"
        }
      ],
      "payable": false,
      "stateMutability": "view",
      "type": "function"
    }
  ],
  "bytecode": "0x608060405234801561001057600080fd5b506040518060400160405280600581526020017f576f726c640000000000000000000000000000000000000000000000000000008152506000908051906020019061005c929190610062565b50610107565b828054600181600116156101000203166002900490600052602060002090601f016020900481019282601f106100a357805160ff19168380011785556100d1565b828001600101855582156100d1579182015b828111156100d05782518255916020019190600101906100b5565b5b5090506100de91906100e2565b5090565b61010491905b808211156101005760008160009055506001016100e8565b5090565b90565b610114806101166000396000f3fe6080604052348015600f57600080fd5b506004361060285760003560e01c8063ce6d41de14602d575b600080fd5b603360ab565b6040518080602001828103825283818151815260200191508051906020019080838360005b8381101560715780820151818401526020810190506058565b50505050905090810190601f168015609d5780820380516001836020036101000a031916815260200191505b509250505060405180910390f35b60606040518060400160405280600b81526020017f48656c6c6f20776f726c6400000000000000000000000000000000000000000081525090509056fea165627a7a72305820bf5973b607a7180e1ec44a9d5c998868b2090ca5481e67fcd2823e0ec2734a550029",
  "source": "pragma solidity ^0.5.0;\n \ncontract HelloWorld {\nstring defaultName;\nconstructor() public{\n    defaultName = 'World';\n}\nfunction getMessage() public view returns(string memory){\n    return (\"Hello world\");\n}\n}",
  "sourcePath": "/Users/adarshajha/helloworld/contracts/HelloWorld.sol",
  "compiler": {
    "name": "solc",
    "version": "0.5.8+commit.23d335f2.Emscripten.clang"
  },
  "schemaVersion": "3.0.11",
  "updatedAt": "2019-06-18T04:44:03.017Z",
  "devdoc": {
    "methods": {}
  },
  "userdoc": {
    "methods": {}
  }
}